{
  "contractName": "Logistics",
  "abi": [
    {
      "inputs": [
        {
          "internalType": "address",
          "name": "_saller",
          "type": "address"
        }
      ],
      "stateMutability": "nonpayable",
      "type": "constructor"
    },
    {
      "inputs": [],
      "name": "Custom1",
      "outputs": [
        {
          "internalType": "address",
          "name": "",
          "type": "address"
        }
      ],
      "stateMutability": "view",
      "type": "function"
    },
    {
      "inputs": [],
      "name": "Custom2",
      "outputs": [
        {
          "internalType": "address",
          "name": "",
          "type": "address"
        }
      ],
      "stateMutability": "view",
      "type": "function"
    },
    {
      "inputs": [],
      "name": "Delivery",
      "outputs": [
        {
          "internalType": "address",
          "name": "",
          "type": "address"
        }
      ],
      "stateMutability": "view",
      "type": "function"
    },
    {
      "inputs": [],
      "name": "Saller",
      "outputs": [
        {
          "internalType": "address",
          "name": "",
          "type": "address"
        }
      ],
      "stateMutability": "view",
      "type": "function"
    },
    {
      "inputs": [
        {
          "internalType": "address",
          "name": "",
          "type": "address"
        }
      ],
      "name": "Track",
      "outputs": [
        {
          "internalType": "bool",
          "name": "Approve",
          "type": "bool"
        },
        {
          "internalType": "string",
          "name": "orderStatus",
          "type": "string"
        },
        {
          "internalType": "string",
          "name": "Customs1",
          "type": "string"
        },
        {
          "internalType": "string",
          "name": "Customs2",
          "type": "string"
        },
        {
          "internalType": "string",
          "name": "Delivery",
          "type": "string"
        }
      ],
      "stateMutability": "view",
      "type": "function"
    },
    {
      "inputs": [],
      "name": "coustmer",
      "outputs": [
        {
          "internalType": "address",
          "name": "",
          "type": "address"
        }
      ],
      "stateMutability": "view",
      "type": "function"
    },
    {
      "inputs": [
        {
          "internalType": "address",
          "name": "_coustomer",
          "type": "address"
        }
      ],
      "name": "SetCoustomer",
      "outputs": [],
      "stateMutability": "nonpayable",
      "type": "function"
    },
    {
      "inputs": [
        {
          "internalType": "address",
          "name": "_custom1",
          "type": "address"
        },
        {
          "internalType": "address",
          "name": "_custom2",
          "type": "address"
        }
      ],
      "name": "setCustoms",
      "outputs": [],
      "stateMutability": "nonpayable",
      "type": "function"
    },
    {
      "inputs": [
        {
          "internalType": "address",
          "name": "_delivery",
          "type": "address"
        }
      ],
      "name": "setDeliveryHub",
      "outputs": [],
      "stateMutability": "nonpayable",
      "type": "function"
    },
    {
      "inputs": [
        {
          "internalType": "address",
          "name": "_orderaddress",
          "type": "address"
        }
      ],
      "name": "ConfirmOrder",
      "outputs": [],
      "stateMutability": "nonpayable",
      "type": "function"
    },
    {
      "inputs": [
        {
          "internalType": "address",
          "name": "_orderaddress",
          "type": "address"
        }
      ],
      "name": "ApproveCustom1",
      "outputs": [],
      "stateMutability": "nonpayable",
      "type": "function"
    },
    {
      "inputs": [
        {
          "internalType": "address",
          "name": "_orderaddress",
          "type": "address"
        }
      ],
      "name": "ApproveCustom2",
      "outputs": [],
      "stateMutability": "nonpayable",
      "type": "function"
    }
  ],
  "bytecode": "0x60806040523480156200001157600080fd5b50604051620015ac380380620015ac8339818101604052810190620000379190620000e8565b806000806101000a81548173ffffffffffffffffffffffffffffffffffffffff021916908373ffffffffffffffffffffffffffffffffffffffff160217905550506200011a565b600080fd5b600073ffffffffffffffffffffffffffffffffffffffff82169050919050565b6000620000b08262000083565b9050919050565b620000c281620000a3565b8114620000ce57600080fd5b50565b600081519050620000e281620000b7565b92915050565b6000602082840312156200010157620001006200007e565b5b60006200011184828501620000d1565b91505092915050565b611482806200012a6000396000f3fe608060405234801561001057600080fd5b50600436106100b45760003560e01c806378f1650f1161007157806378f1650f1461017d5780639258bdaf1461019b578063b019c0bb146101b7578063ce613445146101d3578063e23449af146101ef578063f7aad59a1461020d576100b4565b806320458182146100b957806344a39c25146100d757806350303c0d1461010b578063545ee64d146101275780635ef6ad57146101435780636453269d14610161575b600080fd5b6100c161022b565b6040516100ce9190610da8565b60405180910390f35b6100f160048036038101906100ec9190610df4565b610251565b604051610102959493929190610ecc565b60405180910390f35b61012560048036038101906101209190610df4565b6104b4565b005b610141600480360381019061013c9190610df4565b61062b565b005b61014b6106fd565b6040516101589190610da8565b60405180910390f35b61017b60048036038101906101769190610df4565b610723565b005b610185610941565b6040516101929190610da8565b60405180910390f35b6101b560048036038101906101b09190610df4565b610965565b005b6101d160048036038101906101cc9190610f3b565b610b35565b005b6101ed60048036038101906101e89190610df4565b610c49565b005b6101f7610d1b565b6040516102049190610da8565b60405180910390f35b610215610d41565b6040516102229190610da8565b60405180910390f35b600260009054906101000a900473ffffffffffffffffffffffffffffffffffffffff1681565b60056020528060005260406000206000915090508060000160009054906101000a900460ff169080600101805461028790610faa565b80601f01602080910402602001604051908101604052809291908181526020018280546102b390610faa565b80156103005780601f106102d557610100808354040283529160200191610300565b820191906000526020600020905b8154815290600101906020018083116102e357829003601f168201915b50505050509080600201805461031590610faa565b80601f016020809104026020016040519081016040528092919081815260200182805461034190610faa565b801561038e5780601f106103635761010080835404028352916020019161038e565b820191906000526020600020905b81548152906001019060200180831161037157829003601f168201915b5050505050908060030180546103a390610faa565b80601f01602080910402602001604051908101604052809291908181526020018280546103cf90610faa565b801561041c5780601f106103f15761010080835404028352916020019161041c565b820191906000526020600020905b8154815290600101906020018083116103ff57829003601f168201915b50505050509080600401805461043190610faa565b80601f016020809104026020016040519081016040528092919081815260200182805461045d90610faa565b80156104aa5780601f1061047f576101008083540402835291602001916104aa565b820191906000526020600020905b81548152906001019060200180831161048d57829003601f168201915b5050505050905085565b600260009054906101000a900473ffffffffffffffffffffffffffffffffffffffff1673ffffffffffffffffffffffffffffffffffffffff163373ffffffffffffffffffffffffffffffffffffffff1614610544576040517f08c379a000000000000000000000000000000000000000000000000000000000815260040161053b90611027565b60405180910390fd5b600160009054906101000a900473ffffffffffffffffffffffffffffffffffffffff1673ffffffffffffffffffffffffffffffffffffffff168173ffffffffffffffffffffffffffffffffffffffff161461059e57600080fd5b6040518060600160405280602881526020016113ff6028913960056000600160009054906101000a900473ffffffffffffffffffffffffffffffffffffffff1673ffffffffffffffffffffffffffffffffffffffff1673ffffffffffffffffffffffffffffffffffffffff1681526020019081526020016000206002019081610627919061122c565b5050565b3373ffffffffffffffffffffffffffffffffffffffff1660008054906101000a900473ffffffffffffffffffffffffffffffffffffffff1673ffffffffffffffffffffffffffffffffffffffff16146106b9576040517f08c379a00000000000000000000000000000000000000000000000000000000081526004016106b09061134a565b60405180910390fd5b80600160006101000a81548173ffffffffffffffffffffffffffffffffffffffff021916908373ffffffffffffffffffffffffffffffffffffffff16021790555050565b600460009054906101000a900473ffffffffffffffffffffffffffffffffffffffff1681565b600360009054906101000a900473ffffffffffffffffffffffffffffffffffffffff1673ffffffffffffffffffffffffffffffffffffffff163373ffffffffffffffffffffffffffffffffffffffff16146107b3576040517f08c379a00000000000000000000000000000000000000000000000000000000081526004016107aa906113b6565b60405180910390fd5b600160009054906101000a900473ffffffffffffffffffffffffffffffffffffffff1673ffffffffffffffffffffffffffffffffffffffff168173ffffffffffffffffffffffffffffffffffffffff161461080d57600080fd5b6040518060600160405280602881526020016113d76028913960056000600160009054906101000a900473ffffffffffffffffffffffffffffffffffffffff1673ffffffffffffffffffffffffffffffffffffffff1673ffffffffffffffffffffffffffffffffffffffff1681526020019081526020016000206003019081610896919061122c565b506040518060400160405280601181526020017f5061636b6167652044656c69766572656400000000000000000000000000000081525060056000600160009054906101000a900473ffffffffffffffffffffffffffffffffffffffff1673ffffffffffffffffffffffffffffffffffffffff1673ffffffffffffffffffffffffffffffffffffffff168152602001908152602001600020600401908161093d919061122c565b5050565b60008054906101000a900473ffffffffffffffffffffffffffffffffffffffff1681565b3373ffffffffffffffffffffffffffffffffffffffff1660008054906101000a900473ffffffffffffffffffffffffffffffffffffffff1673ffffffffffffffffffffffffffffffffffffffff16146109f3576040517f08c379a00000000000000000000000000000000000000000000000000000000081526004016109ea9061134a565b60405180910390fd5b6001600560008373ffffffffffffffffffffffffffffffffffffffff1673ffffffffffffffffffffffffffffffffffffffff16815260200190815260200160002060000160006101000a81548160ff021916908315150217905550600160009054906101000a900473ffffffffffffffffffffffffffffffffffffffff1673ffffffffffffffffffffffffffffffffffffffff168173ffffffffffffffffffffffffffffffffffffffff1614610aa857600080fd5b6040518060600160405280602681526020016114276026913960056000600160009054906101000a900473ffffffffffffffffffffffffffffffffffffffff1673ffffffffffffffffffffffffffffffffffffffff1673ffffffffffffffffffffffffffffffffffffffff1681526020019081526020016000206001019081610b31919061122c565b5050565b3373ffffffffffffffffffffffffffffffffffffffff1660008054906101000a900473ffffffffffffffffffffffffffffffffffffffff1673ffffffffffffffffffffffffffffffffffffffff1614610bc3576040517f08c379a0000000000000000000000000000000000000000000000000000000008152600401610bba9061134a565b60405180910390fd5b81600260006101000a81548173ffffffffffffffffffffffffffffffffffffffff021916908373ffffffffffffffffffffffffffffffffffffffff16021790555080600360006101000a81548173ffffffffffffffffffffffffffffffffffffffff021916908373ffffffffffffffffffffffffffffffffffffffff1602179055505050565b3373ffffffffffffffffffffffffffffffffffffffff1660008054906101000a900473ffffffffffffffffffffffffffffffffffffffff1673ffffffffffffffffffffffffffffffffffffffff1614610cd7576040517f08c379a0000000000000000000000000000000000000000000000000000000008152600401610cce9061134a565b60405180910390fd5b80600460006101000a81548173ffffffffffffffffffffffffffffffffffffffff021916908373ffffffffffffffffffffffffffffffffffffffff16021790555050565b600360009054906101000a900473ffffffffffffffffffffffffffffffffffffffff1681565b600160009054906101000a900473ffffffffffffffffffffffffffffffffffffffff1681565b600073ffffffffffffffffffffffffffffffffffffffff82169050919050565b6000610d9282610d67565b9050919050565b610da281610d87565b82525050565b6000602082019050610dbd6000830184610d99565b92915050565b600080fd5b610dd181610d87565b8114610ddc57600080fd5b50565b600081359050610dee81610dc8565b92915050565b600060208284031215610e0a57610e09610dc3565b5b6000610e1884828501610ddf565b91505092915050565b60008115159050919050565b610e3681610e21565b82525050565b600081519050919050565b600082825260208201905092915050565b60005b83811015610e76578082015181840152602081019050610e5b565b60008484015250505050565b6000601f19601f8301169050919050565b6000610e9e82610e3c565b610ea88185610e47565b9350610eb8818560208601610e58565b610ec181610e82565b840191505092915050565b600060a082019050610ee16000830188610e2d565b8181036020830152610ef38187610e93565b90508181036040830152610f078186610e93565b90508181036060830152610f1b8185610e93565b90508181036080830152610f2f8184610e93565b90509695505050505050565b60008060408385031215610f5257610f51610dc3565b5b6000610f6085828601610ddf565b9250506020610f7185828601610ddf565b9150509250929050565b7f4e487b7100000000000000000000000000000000000000000000000000000000600052602260045260246000fd5b60006002820490506001821680610fc257607f821691505b602082108103610fd557610fd4610f7b565b5b50919050565b7f437573746f6d31206f6e6c79206f7065726174696f6e00000000000000000000600082015250565b6000611011601683610e47565b915061101c82610fdb565b602082019050919050565b6000602082019050818103600083015261104081611004565b9050919050565b7f4e487b7100000000000000000000000000000000000000000000000000000000600052604160045260246000fd5b60008190508160005260206000209050919050565b60006020601f8301049050919050565b600082821b905092915050565b6000600883026110d87fffffffffffffffffffffffffffffffffffffffffffffffffffffffffffffffff8261109b565b6110e2868361109b565b95508019841693508086168417925050509392505050565b6000819050919050565b6000819050919050565b600061112961112461111f846110fa565b611104565b6110fa565b9050919050565b6000819050919050565b6111438361110e565b61115761114f82611130565b8484546110a8565b825550505050565b600090565b61116c61115f565b61117781848461113a565b505050565b5b8181101561119b57611190600082611164565b60018101905061117d565b5050565b601f8211156111e0576111b181611076565b6111ba8461108b565b810160208510156111c9578190505b6111dd6111d58561108b565b83018261117c565b50505b505050565b600082821c905092915050565b6000611203600019846008026111e5565b1980831691505092915050565b600061121c83836111f2565b9150826002028217905092915050565b61123582610e3c565b67ffffffffffffffff81111561124e5761124d611047565b5b6112588254610faa565b61126382828561119f565b600060209050601f8311600181146112965760008415611284578287015190505b61128e8582611210565b8655506112f6565b601f1984166112a486611076565b60005b828110156112cc578489015182556001820191506020850194506020810190506112a7565b868310156112e957848901516112e5601f8916826111f2565b8355505b6001600288020188555050505b505050505050565b7f596f7520617265204e4f7420612053616c6c6572000000000000000000000000600082015250565b6000611334601483610e47565b915061133f826112fe565b602082019050919050565b6000602082019050818103600083015261136381611327565b9050919050565b7f437573746f6d32206f6e6c79206f7065726174696f6e00000000000000000000600082015250565b60006113a0601683610e47565b91506113ab8261136a565b602082019050919050565b600060208201905081810360008301526113cf81611393565b905091905056fe436c65617220627920437573746f6d3220616e6420417070726f76656420666f7220496d706f7274436c65617220627920437573746f6d3120616e6420417070726f76656420666f72204578706f7274636f6e6669726d20616e642053656e6420466f7220437573746f6d3120436c656172616e6365a2646970667358221220466e02600e1b62bb8a7f17308a74bae5d92ec7de59c1d4ca8be75c9713843cec64736f6c63430008100033",
  "immutableReferences": {},
  "source": "// SPDX-License-Identifier: GPL-3.0\r\n\r\npragma solidity >=0.7.0 <0.9.0;\r\n\r\ncontract saller{\r\n\r\n    address public Saller = msg.sender;\r\n    address public coustmer;\r\n\r\n    struct selling_item{\r\n        string Name;\r\n        }\r\n\r\n    mapping(uint => selling_item) public Selling_item;\r\n\r\n    string[] buyer;\r\n\r\n    mapping(uint=>string) itemlist;\r\n\r\n    function Setproducts(uint _Id, string memory _Name)  public {\r\n        itemlist[_Id] =_Name;\r\n        Selling_item[_Id] = selling_item(_Name);\r\n        \r\n    }\r\n\r\n    function buy(uint _itemID) public payable returns(address){\r\n        coustmer = msg.sender;\r\n        require(msg.value == 0.1 ether,\"Not enough Money!!\");\r\n        buyer.push(itemlist[_itemID]);\r\n        return coustmer;\r\n    }\r\n\r\n    function order_product() view  public returns(string[]memory){\r\n        return buyer;\r\n    }\r\n\r\n}\r\n\r\ncontract Logistics{\r\n\r\n    address public Saller;\r\n    address public coustmer;\r\n    address public Custom1;\r\n    address public Custom2;\r\n    address public Delivery;\r\n\r\n    struct Packageitem{\r\n        bool Approve;\r\n        string orderStatus;\r\n\r\n        string Customs1;\r\n        string Customs2;\r\n        \r\n        string Delivery;\r\n    }\r\n\r\n    constructor (address _saller){\r\n        Saller = _saller;\r\n    }\r\n\r\n\r\n    mapping (address => Packageitem) public Track;\r\n\r\n    modifier OnlySaller{\r\n        require (Saller == msg.sender, \"You are NOt a Saller\");\r\n        _;\r\n    }\r\n\r\n    function SetCoustomer(address _coustomer) public OnlySaller {\r\n        coustmer = _coustomer;\r\n    }\r\n\r\n    function setCustoms(address _custom1,address _custom2) public OnlySaller {\r\n        Custom1 = _custom1;\r\n        Custom2 = _custom2;\r\n    }\r\n\r\n\r\n    modifier Custom1Only{\r\n        require (msg.sender == address(Custom1),\"Custom1 only operation\");\r\n        _;\r\n    }\r\n\r\n    modifier Custom2Only{\r\n        require (msg.sender == address(Custom2),\"Custom2 only operation\");\r\n        _;\r\n    }\r\n    \r\n    function setDeliveryHub(address _delivery) public OnlySaller {\r\n        Delivery = _delivery;\r\n    }\r\n\r\n    function Tracking() private { \r\n        Track[coustmer] = Packageitem(\r\n            false,\"Ordered Not Confirm\",\r\n            \"Panding\",\"Panding\",\"Intransit\"\r\n            );\r\n\r\n    }\r\n\r\n    function ConfirmOrder(address _orderaddress) public OnlySaller{\r\n        Track[_orderaddress].Approve = true;\r\n        require (_orderaddress == coustmer);\r\n        Track[coustmer].orderStatus = \"confirm and Send For Custom1 Clearance\";\r\n\r\n    }\r\n\r\n    function ApproveCustom1(address _orderaddress) external Custom1Only{\r\n        require (_orderaddress == coustmer);\r\n        Track[coustmer].Customs1 = \"Clear by Custom1 and Approved for Export\";\r\n    }\r\n\r\n\r\n    function ApproveCustom2(address _orderaddress) external Custom2Only{\r\n        require (_orderaddress == coustmer);\r\n        Track[coustmer].Customs2 = \"Clear by Custom2 and Approved for Import\";\r\n        Track[coustmer].Delivery = \"Package Delivered\";\r\n    }\r\n}",
  "sourcePath": "C:\\Users\\sakha\\.vscode\\MyPrograms\\PROJECT\\contracts\\Logistics.sol",
  "compiler": {
    "name": "solc",
    "version": "0.8.16+commit.07a7930e.Emscripten.clang"
  },
  "schemaVersion": "3.4.9",
  "updatedAt": "2022-10-21T06:55:10.224Z",
  "devdoc": {
    "kind": "dev",
    "methods": {},
    "version": 1
  },
  "userdoc": {
    "kind": "user",
    "methods": {},
    "version": 1
  }
}