{
  "contractName": "saller",
  "abi": [
    {
      "inputs": [],
      "name": "Saller",
      "outputs": [
        {
          "internalType": "address",
          "name": "",
          "type": "address"
        }
      ],
      "stateMutability": "view",
      "type": "function"
    },
    {
      "inputs": [
        {
          "internalType": "uint256",
          "name": "",
          "type": "uint256"
        }
      ],
      "name": "Selling_item",
      "outputs": [
        {
          "internalType": "string",
          "name": "Name",
          "type": "string"
        }
      ],
      "stateMutability": "view",
      "type": "function"
    },
    {
      "inputs": [],
      "name": "coustmer",
      "outputs": [
        {
          "internalType": "address",
          "name": "",
          "type": "address"
        }
      ],
      "stateMutability": "view",
      "type": "function"
    },
    {
      "inputs": [
        {
          "internalType": "uint256",
          "name": "_Id",
          "type": "uint256"
        },
        {
          "internalType": "string",
          "name": "_Name",
          "type": "string"
        }
      ],
      "name": "Setproducts",
      "outputs": [],
      "stateMutability": "nonpayable",
      "type": "function"
    },
    {
      "inputs": [
        {
          "internalType": "uint256",
          "name": "_itemID",
          "type": "uint256"
        }
      ],
      "name": "buy",
      "outputs": [
        {
          "internalType": "address",
          "name": "",
          "type": "address"
        }
      ],
      "stateMutability": "payable",
      "type": "function"
    },
    {
      "inputs": [],
      "name": "order_product",
      "outputs": [
        {
          "internalType": "string[]",
          "name": "",
          "type": "string[]"
        }
      ],
      "stateMutability": "view",
      "type": "function"
    }
  ],
  "bytecode": "0x6080604052336000806101000a81548173ffffffffffffffffffffffffffffffffffffffff021916908373ffffffffffffffffffffffffffffffffffffffff16021790555034801561005057600080fd5b50610d6f806100606000396000f3fe6080604052600436106100555760003560e01c806346c254991461005a5780636b6eb36b1461008357806378f1650f146100ae578063d96a094a146100d9578063f7aad59a14610109578063fee8358d14610134575b600080fd5b34801561006657600080fd5b50610081600480360381019061007c9190610628565b610171565b005b34801561008f57600080fd5b506100986101d1565b6040516100a591906107c5565b60405180910390f35b3480156100ba57600080fd5b506100c36102aa565b6040516100d09190610828565b60405180910390f35b6100f360048036038101906100ee9190610843565b6102ce565b6040516101009190610828565b60405180910390f35b34801561011557600080fd5b5061011e6103cc565b60405161012b9190610828565b60405180910390f35b34801561014057600080fd5b5061015b60048036038101906101569190610843565b6103f2565b60405161016891906108ba565b60405180910390f35b806004600084815260200190815260200160002090816101919190610ae8565b506040518060200160405280828152506002600084815260200190815260200160002060008201518160000190816101c99190610ae8565b509050505050565b60606003805480602002602001604051908101604052809291908181526020016000905b828210156102a15783829060005260206000200180546102149061090b565b80601f01602080910402602001604051908101604052809291908181526020018280546102409061090b565b801561028d5780601f106102625761010080835404028352916020019161028d565b820191906000526020600020905b81548152906001019060200180831161027057829003601f168201915b5050505050815260200190600101906101f5565b50505050905090565b60008054906101000a900473ffffffffffffffffffffffffffffffffffffffff1681565b600033600160006101000a81548173ffffffffffffffffffffffffffffffffffffffff021916908373ffffffffffffffffffffffffffffffffffffffff16021790555067016345785d8a0000341461035b576040517f08c379a000000000000000000000000000000000000000000000000000000000815260040161035290610c06565b60405180910390fd5b6003600460008481526020019081526020016000209080600181540180825580915050600190039060005260206000200160009091909190915090816103a19190610c51565b50600160009054906101000a900473ffffffffffffffffffffffffffffffffffffffff169050919050565b600160009054906101000a900473ffffffffffffffffffffffffffffffffffffffff1681565b60026020528060005260406000206000915090508060000180546104159061090b565b80601f01602080910402602001604051908101604052809291908181526020018280546104419061090b565b801561048e5780601f106104635761010080835404028352916020019161048e565b820191906000526020600020905b81548152906001019060200180831161047157829003601f168201915b5050505050905081565b6000604051905090565b600080fd5b600080fd5b6000819050919050565b6104bf816104ac565b81146104ca57600080fd5b50565b6000813590506104dc816104b6565b92915050565b600080fd5b600080fd5b6000601f19601f8301169050919050565b7f4e487b7100000000000000000000000000000000000000000000000000000000600052604160045260246000fd5b610535826104ec565b810181811067ffffffffffffffff82111715610554576105536104fd565b5b80604052505050565b6000610567610498565b9050610573828261052c565b919050565b600067ffffffffffffffff821115610593576105926104fd565b5b61059c826104ec565b9050602081019050919050565b82818337600083830152505050565b60006105cb6105c684610578565b61055d565b9050828152602081018484840111156105e7576105e66104e7565b5b6105f28482856105a9565b509392505050565b600082601f83011261060f5761060e6104e2565b5b813561061f8482602086016105b8565b91505092915050565b6000806040838503121561063f5761063e6104a2565b5b600061064d858286016104cd565b925050602083013567ffffffffffffffff81111561066e5761066d6104a7565b5b61067a858286016105fa565b9150509250929050565b600081519050919050565b600082825260208201905092915050565b6000819050602082019050919050565b600081519050919050565b600082825260208201905092915050565b60005b838110156106ea5780820151818401526020810190506106cf565b60008484015250505050565b6000610701826106b0565b61070b81856106bb565b935061071b8185602086016106cc565b610724816104ec565b840191505092915050565b600061073b83836106f6565b905092915050565b6000602082019050919050565b600061075b82610684565b610765818561068f565b935083602082028501610777856106a0565b8060005b858110156107b35784840389528151610794858261072f565b945061079f83610743565b925060208a0199505060018101905061077b565b50829750879550505050505092915050565b600060208201905081810360008301526107df8184610750565b905092915050565b600073ffffffffffffffffffffffffffffffffffffffff82169050919050565b6000610812826107e7565b9050919050565b61082281610807565b82525050565b600060208201905061083d6000830184610819565b92915050565b600060208284031215610859576108586104a2565b5b6000610867848285016104cd565b91505092915050565b600082825260208201905092915050565b600061088c826106b0565b6108968185610870565b93506108a68185602086016106cc565b6108af816104ec565b840191505092915050565b600060208201905081810360008301526108d48184610881565b905092915050565b7f4e487b7100000000000000000000000000000000000000000000000000000000600052602260045260246000fd5b6000600282049050600182168061092357607f821691505b602082108103610936576109356108dc565b5b50919050565b60008190508160005260206000209050919050565b60006020601f8301049050919050565b600082821b905092915050565b60006008830261099e7fffffffffffffffffffffffffffffffffffffffffffffffffffffffffffffffff82610961565b6109a88683610961565b95508019841693508086168417925050509392505050565b6000819050919050565b60006109e56109e06109db846104ac565b6109c0565b6104ac565b9050919050565b6000819050919050565b6109ff836109ca565b610a13610a0b826109ec565b84845461096e565b825550505050565b600090565b610a28610a1b565b610a338184846109f6565b505050565b5b81811015610a5757610a4c600082610a20565b600181019050610a39565b5050565b601f821115610a9c57610a6d8161093c565b610a7684610951565b81016020851015610a85578190505b610a99610a9185610951565b830182610a38565b50505b505050565b600082821c905092915050565b6000610abf60001984600802610aa1565b1980831691505092915050565b6000610ad88383610aae565b9150826002028217905092915050565b610af1826106b0565b67ffffffffffffffff811115610b0a57610b096104fd565b5b610b14825461090b565b610b1f828285610a5b565b600060209050601f831160018114610b525760008415610b40578287015190505b610b4a8582610acc565b865550610bb2565b601f198416610b608661093c565b60005b82811015610b8857848901518255600182019150602085019450602081019050610b63565b86831015610ba55784890151610ba1601f891682610aae565b8355505b6001600288020188555050505b505050505050565b7f4e6f7420656e6f756768204d6f6e657921210000000000000000000000000000600082015250565b6000610bf0601283610870565b9150610bfb82610bba565b602082019050919050565b60006020820190508181036000830152610c1f81610be3565b9050919050565b600081549050610c358161090b565b9050919050565b60008190508160005260206000209050919050565b818103610c5f575050610d37565b610c6882610c26565b67ffffffffffffffff811115610c8157610c806104fd565b5b610c8b825461090b565b610c96828285610a5b565b6000601f831160018114610cc55760008415610cb3578287015490505b610cbd8582610acc565b865550610d30565b601f198416610cd387610c3c565b9650610cde8661093c565b60005b82811015610d0657848901548255600182019150600185019450602081019050610ce1565b86831015610d235784890154610d1f601f891682610aae565b8355505b6001600288020188555050505b5050505050505b56fea2646970667358221220a42f6fb5c498fce4e786d1a4ed8686722d29fcee86a7df102fe62381d43b2da364736f6c63430008100033",
  "immutableReferences": {},
  "source": "// SPDX-License-Identifier: GPL-3.0\r\n\r\npragma solidity >=0.7.0 <0.9.0;\r\n\r\ncontract saller{\r\n\r\n    address public Saller = msg.sender;\r\n    address public coustmer;\r\n\r\n    struct selling_item{\r\n        string Name;\r\n        }\r\n\r\n    mapping(uint => selling_item) public Selling_item;\r\n\r\n    string[] buyer;\r\n\r\n    mapping(uint=>string) itemlist;\r\n\r\n    function Setproducts(uint _Id, string memory _Name)  public {\r\n        itemlist[_Id] =_Name;\r\n        Selling_item[_Id] = selling_item(_Name);\r\n        \r\n    }\r\n\r\n    function buy(uint _itemID) public payable returns(address){\r\n        coustmer = msg.sender;\r\n        require(msg.value == 0.1 ether,\"Not enough Money!!\");\r\n        buyer.push(itemlist[_itemID]);\r\n        return coustmer;\r\n    }\r\n\r\n    function order_product() view  public returns(string[]memory){\r\n        return buyer;\r\n    }\r\n\r\n}\r\n\r\ncontract Logistics{\r\n\r\n    address public Saller;\r\n    address public coustmer;\r\n    address public Custom1;\r\n    address public Custom2;\r\n    address public Delivery;\r\n\r\n    struct Packageitem{\r\n        bool Approve;\r\n        string orderStatus;\r\n\r\n        string Customs1;\r\n        string Customs2;\r\n        \r\n        string Delivery;\r\n    }\r\n\r\n    constructor (address _saller){\r\n        Saller = _saller;\r\n    }\r\n\r\n\r\n    mapping (address => Packageitem) public Track;\r\n\r\n    modifier OnlySaller{\r\n        require (Saller == msg.sender, \"You are NOt a Saller\");\r\n        _;\r\n    }\r\n\r\n    function SetCoustomer(address _coustomer) public OnlySaller {\r\n        coustmer = _coustomer;\r\n    }\r\n\r\n    function setCustoms(address _custom1,address _custom2) public OnlySaller {\r\n        Custom1 = _custom1;\r\n        Custom2 = _custom2;\r\n    }\r\n\r\n\r\n    modifier Custom1Only{\r\n        require (msg.sender == address(Custom1),\"Custom1 only operation\");\r\n        _;\r\n    }\r\n\r\n    modifier Custom2Only{\r\n        require (msg.sender == address(Custom2),\"Custom2 only operation\");\r\n        _;\r\n    }\r\n    \r\n    function setDeliveryHub(address _delivery) public OnlySaller {\r\n        Delivery = _delivery;\r\n    }\r\n\r\n    function Tracking() private { \r\n        Track[coustmer] = Packageitem(\r\n            false,\"Ordered Not Confirm\",\r\n            \"Panding\",\"Panding\",\"Intransit\"\r\n            );\r\n\r\n    }\r\n\r\n    function ConfirmOrder(address _orderaddress) public OnlySaller{\r\n        Track[_orderaddress].Approve = true;\r\n        require (_orderaddress == coustmer);\r\n        Track[coustmer].orderStatus = \"confirm and Send For Custom1 Clearance\";\r\n\r\n    }\r\n\r\n    function ApproveCustom1(address _orderaddress) external Custom1Only{\r\n        require (_orderaddress == coustmer);\r\n        Track[coustmer].Customs1 = \"Clear by Custom1 and Approved for Export\";\r\n    }\r\n\r\n\r\n    function ApproveCustom2(address _orderaddress) external Custom2Only{\r\n        require (_orderaddress == coustmer);\r\n        Track[coustmer].Customs2 = \"Clear by Custom2 and Approved for Import\";\r\n        Track[coustmer].Delivery = \"Package Delivered\";\r\n    }\r\n}",
  "sourcePath": "C:\\Users\\sakha\\.vscode\\MyPrograms\\PROJECT\\contracts\\Logistics.sol",
  "compiler": {
    "name": "solc",
    "version": "0.8.16+commit.07a7930e.Emscripten.clang"
  },
  "schemaVersion": "3.4.9",
  "updatedAt": "2022-10-21T06:55:10.282Z",
  "devdoc": {
    "kind": "dev",
    "methods": {},
    "version": 1
  },
  "userdoc": {
    "kind": "user",
    "methods": {},
    "version": 1
  }
}